:100000000C942A000C943F000C943F000C943F0089
:100010000C943F000C943F000C943F000C943F0064
:100020000C943F000C943F000C943F000C943F0054
:100030000C943F000C943F000C943F000C943F0044
:100040000C943F000C943F000C943F000C943F0034
:100050000C943F0011241FBECFE5D8E0DEBFCDBF1A
:1000600010E0A0E6B0E0ECE2F0E202C005900D92F4
:10007000AA37B107D9F70E94CA0E0C9414100C9439
:100080000000EF92FF920F931F937B018C0120E001
:1000900030E040E05FE40E94410388238CF0C80117
:1000A000B70120E030E040E05FE40E94B9010E9427
:1000B000A1039B01AC01205030404040504806C095
:1000C000C801B7010E94A1039B01AC01B901CA019B
:1000D0001F910F91FF90EF900895A0E0B0E0E3E74B
:1000E000F0E00C94DD0FDC012B01FA019C919230C1
:1000F00008F439C1EB018881823008F433C19430AF
:1001000069F4843009F02FC111969C91119789816F
:10011000981709F428C1A1E7B0E025C1843009F49B
:1001200021C18230A9F4923009F01DC19A01AD01BC
:1001300088E0EA010990AE01E90109929E0181502F
:10014000C1F7E201898111969C918923818308C1BD
:10015000923009F407C112962D903C901397EB0151
:100160008A819B811496AD90BD90CD90DC901797BD
:10017000EC80FD800E811F819101281B390BB90194
:1001800037FF04C066277727621B730B6032710547
:100190000CF061C0121613066CF537014801062EEB
:1001A00004C096948794779467940A94D2F721E0D8
:1001B00030E040E050E004C0220F331F441F551FC1
:1001C0006A95D2F721503040404050402E213F21C7
:1001D00040235123211531054105510521F021E02E
:1001E00030E040E050E079018A01E628F72808294C
:1001F00019293CC0232BD1F1260E371E35014601AB
:10020000062E04C096948794779467940A94D2F744
:1002100021E030E040E050E004C0220F331F441FD3
:10022000551F6A95D2F721503040404050402A2156
:100230003B214C215D21211531054105510521F05E
:1002400021E030E040E050E059016A01A628B728DB
:10025000C828D9280BC0821593052CF01C01AA24AC
:10026000BB24650103C0EE24FF24870111969C91F5
:10027000D20111968C91981709F445C0992339F051
:10028000A80197012A193B094C095D0906C0A6017E
:1002900095012E193F09400B510B57FD08C01182E3
:1002A0003382228224833583468357831DC081E0B5
:1002B00081833382228288279927DC01821B930B5A
:1002C000A40BB50B84839583A683B7830DC0220F3F
:1002D000331F441F551F24833583468357838281F0
:1002E000938101979383828324813581468157814D
:1002F000DA01C9010197A109B1098F5F9F4FAF4F83
:10030000BF4328F30BC0918333822282EA0CFB1C8B
:100310000C1D1D1DE482F5820683178383E0808314
:10032000248135814681578157FF1AC0C901AA2708
:1003300097FDA095BA2F81709070A070B0705695FF
:10034000479537952795822B932BA42BB52B848328
:100350009583A683B7838281938101969383828359
:10036000DF0101C0D201CD01CDB7DEB7E2E10C94CF
:10037000F90FA0E2B0E0EFEBF1E00C94E90F698334
:100380007A838B839C832D833E834F835887E9E058
:10039000EE2EF12CEC0EFD1ECE010196B7010E944F
:1003A000CA048E010F5E1F4FCE010596B8010E9450
:1003B000CA048A8991E089278A8BC701B801AE01F6
:1003C000475E5F4F0E946D000E94F503A096E6E035
:1003D0000C940510A0E2B0E0E0EFF1E00C94E90F1E
:1003E00069837A838B839C832D833E834F835887D5
:1003F000F9E0EF2EF12CEC0EFD1ECE010196B701B7
:100400000E94CA048E010F5E1F4FCE010596B801EF
:100410000E94CA04C701B801AE01475E5F4F0E9447
:100420006D000E94F503A096E6E00C940510A0E292
:10043000B0E0EDE1F2E00C94DD0F69837A838B8309
:100440009C832D833E834F835887CE010196BE0146
:10045000675F7F4F0E94CA04CE010596BE016F5EA2
:100460007F4F0E94CA049985923088F08989823032
:10047000C8F0943019F4823051F404C0843029F467
:10048000923081F481E790E0C6C0923049F420E0D8
:100490009A858A89981321E02A87CE010996BBC0E4
:1004A000823049F420E09A858A89981321E02A8BCA
:1004B000CE014196B0C02D843E844F8458886D880B
:1004C0007E888F88988CEE24FF248701AA24BB2481
:1004D000650140E050E060E070E0E0E0F0E0C10184
:1004E00081709070892BE9F0E60CF71C081D191D2E
:1004F0009A01AB012A0D3B1D4C1D5D1D80E090E073
:10050000A0E0B0E0E614F7040805190520F481E046
:1005100090E0A0E0B0E0BA01A901480F591F6A1F9E
:100520007B1FAA0CBB1CCC1CDD1C97FE08C081E005
:1005300090E0A0E0B0E0A82AB92ACA2ADB2A3196C6
:10054000E032F10549F0660C771C881C991C569422
:10055000479437942794C3CFFA85EA892B893C893D
:100560008B859C85280F391F2E5F3F4F17C0CA010E
:1005700081709070892B61F016950795F794E79438
:1005800080E090E0A0E0B0E8E82AF92A0A2B1B2BD3
:1005900076956795579547952F5F3F4F77FDE7CF46
:1005A0000CC0440F551F661F771F17FD4160EE0CEE
:1005B000FF1C001F111F21503040403090E05907B0
:1005C00090E0690790E4790760F32B8F3C8FDB01A3
:1005D000CA018F779070A070B07080349105A1052A
:1005E000B10561F447FD0AC0E114F10401051105EC
:1005F00029F0405C5F4F6F4F7F4F40781A8EFE1797
:1006000011F081E08A8F4D8F5E8F6F8F78A383E02A
:10061000898FCE0149960E94F503A096E2E10C94E1
:10062000F90FA8E1B0E0E7E1F3E00C94E90F69838A
:100630007A838B839C832D833E834F83588789E005
:10064000E82EF12CEC0EFD1ECE010196B7010E94A2
:10065000CA048E010F5E1F4FCE010596B8010E949D
:10066000CA048985823040F08989823028F0C70128
:10067000B8010E94420501C08FEF6896E6E00C9435
:100680000510A8E1B0E0E7E4F3E00C94E90F69831A
:100690007A838B839C832D833E834F83588789E0A5
:1006A000E82EF12CEC0EFD1ECE010196B7010E9442
:1006B000CA048E010F5E1F4FCE010596B8010E943D
:1006C000CA048985823040F08989823028F0C701C8
:1006D000B8010E94420501C08FEF6896E6E00C94D5
:1006E0000510A8E1B0E0E7E7F3E00C94E90F6983B7
:1006F0007A838B839C832D833E834F83588789E045
:10070000E82EF12CEC0EFD1ECE010196B7010E94E1
:10071000CA048E010F5E1F4FCE010596B8010E94DC
:10072000CA048985823040F08989823028F0C70167
:10073000B8010E94420501C081E06896E6E00C9491
:100740000510ACE0B0E0E7EAF3E00C94ED0F69834C
:100750007A838B839C83CE010196BE016B5F7F4FB2
:100760000E94CA048D81823061F1823050F1843060
:1007700021F48E81882351F12EC02F81388537FDD9
:1007800020C06E812F3131051CF06623F9F023C0A3
:100790008EE190E0821B930B29853A854B855C8521
:1007A00004C056954795379527958A95D2F76623C5
:1007B000B1F050954095309521953F4F4F4F5F4F89
:1007C0000EC020E030E040E050E009C02FEF3FEFE6
:1007D0004FEF5FE704C020E030E040E050E8B901AF
:1007E000CA012C96E2E00C940910DF92EF92FF927E
:1007F0000F931F93FC01E480F58006811781D1805F
:100800008081823048F480E090E0A0E1B0E0E82A06
:10081000F92A0A2B1B2BA5C0843009F49FC0823013
:1008200021F4EE24FF24870105C0E114F104010541
:10083000110519F4E0E0F0E096C0628173819FEF4A
:10084000623879070CF05BC022E83FEF261B370BBC
:100850002A3131052CF020E030E040E050E02AC0A1
:10086000B801A701022E04C0769567955795479564
:100870000A94D2F781E090E0A0E0B0E004C0880FD5
:10088000991FAA1FBB1F2A95D2F70197A109B10989
:100890008E219F21A023B1230097A105B10521F04E
:1008A00081E090E0A0E0B0E09A01AB01282B392B69
:1008B0004A2B5B2BDA01C9018F779070A070B07062
:1008C00080349105A105B10539F427FF09C0205CEA
:1008D0003F4F4F4F5F4F04C0215C3F4F4F4F5F4F23
:1008E000E0E0F0E02030A0E03A07A0E04A07A0E412
:1008F0005A0710F0E1E0F0E079018A0127C0603882
:10090000710564F5FB01E158FF4FD801C7018F77EE
:100910009070A070B07080349105A105B10539F4D4
:10092000E7FE0DC080E490E0A0E0B0E004C08FE3FB
:1009300090E0A0E0B0E0E80EF91E0A1F1B1F17FFB1
:1009400005C016950795F794E794319687E01695BC
:100950000795F794E7948A95D1F705C0EE24FF2414
:100960008701EFEFF0E06E2F679566276795902F70
:100970009F77D794DD24D7948E2F8695492F462BC9
:10098000582F5D29B701CA011F910F91FF90EF9079
:10099000DF900895FC01DB01408151812281622FAB
:1009A0006F7770E0221F2227221F9381892F880FE3
:1009B000822B282F30E0991F9927991F11969C931D
:1009C000119721153105A9F54115510561057105ED
:1009D00011F482E037C082E89FEF13969C938E93C8
:1009E00012979A01AB0167E0220F331F441F551F76
:1009F0006A95D1F783E08C930DC0220F331F441FFB
:100A0000551F12968D919C911397019713969C9365
:100A10008E931297203080E0380780E0480780E40A
:100A2000580758F314962D933D934D935C93179765
:100A300008952F3F310579F4411551056105710580
:100A400019F484E08C93089564FF03C081E08C93D3
:100A500012C01C9210C02F57304013963C932E9317
:100A6000129783E08C9387E0440F551F661F771F12
:100A70008A95D1F7706414964D935D936D937C9332
:100A8000179708951F93DC01FB019C91923008F4A5
:100A900047C08081823008F443C0943051F41196ED
:100AA0001C91843099F58181682F70E0611B710978
:100AB0003FC0843021F0923031F48230B9F181812D
:100AC000882389F12DC011961C9111978230F1F085
:100AD00081811817D9F412962D913C911397828138
:100AE00093818217930794F028173907BCF0149666
:100AF0008D919D910D90BC91A02D248135814681D1
:100B00005781281739074A075B0718F4112341F06A
:100B10000AC082179307A407B50740F4112319F000
:100B200061E070E005C06FEF7FEF02C060E070E051
:100B3000CB011F910895DF93CF93CDB7DEB72797F1
:100B40000FB6F894DEBF0FBECDBF89836A834B8397
:100B50008B81882309F074C08981282F30E03F837E
:100B60002E838E819F818130910559F12E813F81A5
:100B7000223031052CF48E819F81009769F0D2C01C
:100B80002E813F812230310589F18E819F81833012
:100B9000910509F440C0C6C0AAE3B0E0EAE3F0E082
:100BA0008081482F8A81282F30E081E090E0022E5A
:100BB00002C0880F991F0A94E2F7809584238C93D2
:100BC000B1C0A7E3B0E0E7E3F0E08081482F8A817D
:100BD000282F30E081E090E0022E02C0880F991F9C
:100BE0000A94E2F7809584238C939CC0A4E3B0E040
:100BF000E4E3F0E08081482F8A81282F30E081E013
:100C000090E0022E02C0880F991F0A94E2F78095A7
:100C100084238C9387C0A1E3B0E0E1E3F0E080811E
:100C2000482F8A81282F30E081E090E0022E02C018
:100C3000880F991F0A94E2F7809584238C9372C0E1
:100C40008B81813009F06EC08981282F30E03D838F
:100C50002C838C819D818130910549F12C813D81CE
:100C6000223031052CF48C819D81009761F05AC0AF
:100C70002C813D812230310571F18C819D81833041
:100C80009105E9F14FC0AAE3B0E0EAE3F0E080812A
:100C9000482F8A81282F30E081E090E0022E02C0A8
:100CA000880F991F0A94E2F7842B8C933BC0A7E32B
:100CB000B0E0E7E3F0E08081482F8A81282F30E020
:100CC00081E090E0022E02C0880F991F0A94E2F79B
:100CD000842B8C9327C0A4E3B0E0E4E3F0E08081B0
:100CE000482F8A81282F30E081E090E0022E02C058
:100CF000880F991F0A94E2F7842B8C9313C0A1E309
:100D0000B0E0E1E3F0E08081482F8A81282F30E0D5
:100D100081E090E0022E02C0880F991F0A94E2F74A
:100D2000842B8C9327960FB6F894DEBF0FBECDBFF1
:100D3000CF91DF910895DF93CF93CDB7DEB727979B
:100D40000FB6F894DEBF0FBECDBF89836A834B8395
:100D50008B81882309F074C08981282F30E03F837C
:100D60002E838E819F818130910559F12E813F81A3
:100D7000223031052CF48E819F81009769F0D2C01A
:100D80002E813F812230310589F18E819F81833010
:100D9000910509F440C0C6C0ABE3B0E0EBE3F0E07E
:100DA0008081482F8A81282F30E081E090E0022E58
:100DB00002C0880F991F0A94E2F7809584238C93D0
:100DC000B1C0A8E3B0E0E8E3F0E08081482F8A8179
:100DD000282F30E081E090E0022E02C0880F991F9A
:100DE0000A94E2F7809584238C939CC0A5E3B0E03D
:100DF000E5E3F0E08081482F8A81282F30E081E010
:100E000090E0022E02C0880F991F0A94E2F78095A5
:100E100084238C9387C0A2E3B0E0E2E3F0E080811A
:100E2000482F8A81282F30E081E090E0022E02C016
:100E3000880F991F0A94E2F7809584238C9372C0DF
:100E40008B81813009F06EC08981282F30E03D838D
:100E50002C838C819D818130910549F12C813D81CC
:100E6000223031052CF48C819D81009761F05AC0AD
:100E70002C813D812230310571F18C819D8183303F
:100E80009105E9F14FC0ABE3B0E0EBE3F0E0808126
:100E9000482F8A81282F30E081E090E0022E02C0A6
:100EA000880F991F0A94E2F7842B8C933BC0A8E328
:100EB000B0E0E8E3F0E08081482F8A81282F30E01D
:100EC00081E090E0022E02C0880F991F0A94E2F799
:100ED000842B8C9327C0A5E3B0E0E5E3F0E08081AC
:100EE000482F8A81282F30E081E090E0022E02C056
:100EF000880F991F0A94E2F7842B8C9313C0A2E306
:100F0000B0E0E2E3F0E08081482F8A81282F30E0D2
:100F100081E090E0022E02C0880F991F0A94E2F748
:100F2000842B8C9327960FB6F894DEBF0FBECDBFEF
:100F3000CF91DF910895DF93CF9300D000D00F922F
:100F4000CDB7DEB78A836B8319828A81282F30E080
:100F50003D832C834C815D814130510541F18C8171
:100F60009D818230910534F42C813D81211531051C
:100F700061F052C04C815D814230510551F18C814C
:100F80009D8183309105B9F147C0E9E3F0E08081AC
:100F9000282F30E08B81882F90E0A90102C0559561
:100FA00047958A95E2F7CA018170898335C0E6E3E7
:100FB000F0E08081282F30E08B81882F90E0A9011C
:100FC00002C0559547958A95E2F7CA0181708983D9
:100FD00023C0E3E3F0E08081282F30E08B81882F6D
:100FE00090E0A90102C0559547958A95E2F7CA019C
:100FF0008170898311C0E0E3F0E08081282F30E028
:101000008B81882F90E0A90102C0559547958A955C
:10101000E2F7CA018170898389810F900F900F9048
:101020000F900F90CF91DF910895DF93CF9300D071
:1010300000D000D0CDB7DEB789836A838A81882348
:1010400079F58981282F30E03E832D838D819E8123
:1010500081309105C9F02D813E81223031052CF47B
:101060008D819E81009761F050C02D813E8122309C
:10107000310571F08D819E818330910569F045C005
:10108000EAE3F0E0108241C0E7E3F0E010823DC007
:10109000E4E3F0E0108239C0E1E3F0E0108235C013
:1010A0008A81813091F58981282F30E03C832B8320
:1010B0008B819C8181309105D1F02B813C81223044
:1010C00031052CF48B819C81009761F01EC02B812F
:1010D0003C812230310581F08B819C8183309105E8
:1010E00081F013C0EAE3F0E08FEF80830EC0E7E306
:1010F000F0E08FEF808309C0E4E3F0E08FEF8083BE
:1011000004C0E1E3F0E08FEF808326960FB6F894F9
:10111000DEBF0FBECDBFCF91DF910895DF93CF9398
:1011200000D000D0CDB7DEB789836A838981282FAC
:1011300030E03C832B838B819C8181309105D1F001
:101140002B813C81223031052CF48B819C810097CE
:1011500061F01EC02B813C812230310581F08B81F2
:101160009C818330910581F013C0EBE3F0E08A812C
:1011700080830EC0E8E3F0E08A81808309C0E5E364
:10118000F0E08A81808304C0E2E3F0E08A8180831A
:101190000F900F900F900F90CF91DF910895DF93F4
:1011A000CF9300D000D0CDB7DEB78A8319828A8171
:1011B000282F30E03C832B838B819C8181309105EB
:1011C000D1F02B813C81223031052CF48B819C8124
:1011D000009761F01EC02B813C812230310581F0E7
:1011E0008B819C818330910581F013C0E9E3F0E0AD
:1011F000808189830EC0E6E3F0E08081898309C0A5
:10120000E3E3F0E08081898304C0E0E3F0E08081E3
:10121000898389810F900F900F900F90CF91DF916C
:101220000895DF93CF93CDB7DEB76D970FB6F894DF
:10123000DEBF0FBECDBF8D8F82E060E040E00E9438
:101240009B0682E061E040E00E949B0683E06D8D9A
:101250000E948E0882E062E041E00E949B0680E0EE
:1012600090E0A0E8BFE3898F9A8FAB8FBC8F698D28
:101270007A8D8B8D9C8D20E030E04AEF54E40E9403
:101280001702DC01CB018D8B9E8BAF8BB88F6D89E4
:101290007E898F89988D20E030E040E85FE30E94EE
:1012A000710388232CF481E090E09C8B8B8B3FC0F2
:1012B0006D897E898F89988D20E03FEF4FE757E455
:1012C0000E94110318164CF5698D7A8D8B8D9C8DBB
:1012D00020E030E040E251E40E941702DC01CB0143
:1012E000BC01CD010E944100DC01CB019C8B8B8BAA
:1012F0000FC088EC90E09A8B898B89899A89019735
:10130000F1F79A8B898B8B899C8901979C8B8B8BAE
:101310008B899C89009769F714C06D897E898F89B4
:10132000988D0E944100DC01CB019C8B8B8B8B89BB
:101330009C89988B8F878F8598890197F1F7988B77
:101340008F8782E062E040E00E949B0680E090E0B0
:10135000A0E8BFE38B879C87AD87BE876B857C85C4
:101360008D859E8520E030E04AEF54E40E9417020C
:10137000DC01CB018F839887A987BA876F81788535
:1013800089859A8520E030E040E85FE30E947103A0
:1013900088232CF481E090E09E838D833FC06F8191
:1013A000788589859A8520E03FEF4FE757E40E94D2
:1013B000110318164CF56B857C858D859E8520E084
:1013C00030E040E251E40E941702DC01CB01BC0195
:1013D000CD010E944100DC01CB019E838D830FC0B3
:1013E00088EC90E09C838B838B819C810197F1F743
:1013F0009C838B838D819E8101979E838D838D81BC
:101400009E81009769F714C06F81788589859A85D8
:101410000E944100DC01CB019E838D838D819E81E2
:101420009A83898389819A810197F1F79A838983C5
:101430006D960FB6F894DEBF0FBECDBFCF91DF9192
:101440000895DF93CF93CDB7DEB76D970FB6F894BD
:10145000DEBF0FBECDBF8D8F82E060E041E00E9415
:101460009B0682E061E040E00E949B0683E06D8D78
:101470000E948E0882E062E041E00E949B0680E0CC
:1014800090E0A0E8BFE3898F9A8FAB8FBC8F698D06
:101490007A8D8B8D9C8D20E030E04AEF54E40E94E1
:1014A0001702DC01CB018D8B9E8BAF8BB88F6D89C2
:1014B0007E898F89988D20E030E040E85FE30E94CC
:1014C000710388232CF481E090E09C8B8B8B3FC0D0
:1014D0006D897E898F89988D20E03FEF4FE757E433
:1014E0000E94110318164CF5698D7A8D8B8D9C8D99
:1014F00020E030E040E251E40E941702DC01CB0121
:10150000BC01CD010E944100DC01CB019C8B8B8B87
:101510000FC088EC90E09A8B898B89899A89019712
:10152000F1F79A8B898B8B899C8901979C8B8B8B8C
:101530008B899C89009769F714C06D897E898F8992
:10154000988D0E944100DC01CB019C8B8B8B8B8999
:101550009C89988B8F878F8598890197F1F7988B55
:101560008F8782E062E040E00E949B0680E090E08E
:10157000A0E8BFE38B879C87AD87BE876B857C85A2
:101580008D859E8520E030E04AEF54E40E941702EA
:10159000DC01CB018F839887A987BA876F81788513
:1015A00089859A8520E030E040E85FE30E9471037E
:1015B00088232CF481E090E09E838D833FC06F816F
:1015C000788589859A8520E03FEF4FE757E40E94B0
:1015D000110318164CF56B857C858D859E8520E062
:1015E00030E040E251E40E941702DC01CB01BC0173
:1015F000CD010E944100DC01CB019E838D830FC091
:1016000088EC90E09C838B838B819C810197F1F720
:101610009C838B838D819E8101979E838D838D8199
:101620009E81009769F714C06F81788589859A85B6
:101630000E944100DC01CB019E838D838D819E81C0
:101640009A83898389819A810197F1F79A838983A3
:101650006D960FB6F894DEBF0FBECDBFCF91DF9170
:101660000895DF93CF93CDB7DEB7E8970FB6F89420
:10167000DEBF0FBECDBF83E061E00E94150882E0AF
:1016800060E041E00E949B0582E061E041E00E9451
:101690009B0582E062E041E00E949B0580E090E0D3
:1016A000A0E2B2E48DAB9EABAFABB8AF6DA97EA9A3
:1016B0008FA998AD20E030E04AEF54E40E94170271
:1016C000DC01CB0189AB9AABABABBCAB69A97AA906
:1016D0008BA99CA920E030E040E85FE30E94710301
:1016E00088232CF481E090E098AB8FA73FC069A9D4
:1016F0007AA98BA99CA920E03FEF4FE757E40E940D
:10170000110318164CF56DA97EA98FA998AD20E09C
:1017100030E040E251E40E941702DC01CB01BC0141
:10172000CD010E944100DC01CB0198AB8FA70FC017
:1017300088EC90E09EA78DA78DA59EA50197F1F757
:101740009EA78DA78FA598A9019798AB8FA78FA566
:1017500098A9009769F714C069A97AA98BA99CA9CF
:101760000E944100DC01CB0198AB8FA78FA598A9FF
:101770009CA78BA78BA59CA50197F1F79CA78BA78E
:1017800088E30E94110980E090E0A0E8BFE38FA306
:1017900098A7A9A7BAA76FA178A589A59AA520E0BF
:1017A00030E04AEF54E40E941702DC01CB018BA326
:1017B0009CA3ADA3BEA36BA17CA18DA19EA120E0A3
:1017C00030E040E85FE30E94710388232CF481E05D
:1017D00090E09AA389A33FC06BA17CA18DA19EA19B
:1017E00020E03FEF4FE757E40E94110318164CF535
:1017F0006FA178A589A59AA520E030E040E251E4E8
:101800000E941702DC01CB01BC01CD010E94410006
:10181000DC01CB019AA389A30FC088EC90E098A3C8
:101820008F8F8F8D98A10197F1F798A38F8F89A142
:101830009AA101979AA389A389A19AA1009769F710
:1018400014C06BA17CA18DA19EA10E944100DC016E
:10185000CB019AA389A389A19AA19E8F8D8F8D8D8B
:101860009E8D0197F1F79E8F8D8F8CE00E9411095C
:1018700080E090E0A0E8BFE3898F9A8FAB8FBC8FA8
:10188000698D7A8D8B8D9C8D20E030E04AEF54E499
:101890000E941702DC01CB018D8B9E8BAF8BB88F22
:1018A0006D897E898F89988D20E030E040E85FE384
:1018B0000E94710388232CF481E090E09C8B8B8B39
:1018C0003FC06D897E898F89988D20E03FEF4FE77B
:1018D00057E40E94110318164CF5698D7A8D8B8D93
:1018E0009C8D20E030E040E251E40E941702DC01D0
:1018F000CB01BC01CD010E944100DC01CB019C8BDE
:101900008B8B0FC088EC90E09A8B898B89899A89A0
:101910000197F1F79A8B898B8B899C8901979C8B16
:101920008B8B8B899C89009769F714C06D897E89A0
:101930008F89988D0E944100DC01CB019C8B8B8BA1
:101940008B899C89988B8F878F8598890197F1F770
:10195000988B8F8781E00E94110980E090E0A0E0E1
:10196000B0E48B879C87AD87BE876B857C858D8532
:101970009E8520E030E04AEF54E40E941702DC012B
:10198000CB018F839887A987BA876F8178858985EE
:101990009A8520E030E040E85FE30E9471038823ED
:1019A0002CF481E090E09E838D833FC06F81788529
:1019B00089859A8520E03FEF4FE757E40E941103A5
:1019C00018164CF56B857C858D859E8520E030E072
:1019D00040E251E40E941702DC01CB01BC01CD01C1
:1019E0000E944100DC01CB019E838D830FC088ECF7
:1019F00090E09C838B838B819C810197F1F79C8382
:101A00008B838D819E8101979E838D838D819E81A5
:101A1000009769F714C06F81788589859A850E943F
:101A20004100DC01CB019E838D838D819E819A8351
:101A3000898389819A810197F1F79A83898386E066
:101A40000E941109E8960FB6F894DEBF0FBECDBF15
:101A5000CF91DF910895DF93CF9300D00F92CDB750
:101A6000DEB78A836B838A81882F90E00024969565
:101A700087950794969587950794982F802D982F92
:101A80008B81890F8058898389810E9411090F9069
:101A90000F900F90CF91DF910895DF93CF9300D0F7
:101AA0000F92CDB7DEB79B838A8319820EC08981DE
:101AB000282F30E08A819B81FC01E20FF31F808197
:101AC0000E94210A89818F5F89838981282F30E0D4
:101AD0008A819B81FC01E20FF31F8081882339F703
:101AE0000F900F900F90CF91DF910895DF93CF93D8
:101AF00000D000D00F92CDB7DEB78B837D836C838F
:101B00008B81882F90E00896880F991F880F991F66
:101B1000880F991F8A838A810E94110919820EC039
:101B20008981282F30E08C819D81FC01E20FF31F19
:101B300080810E94210A89818F5F89838981883011
:101B400078F30F900F900F900F900F90CF91DF913F
:101B50000895DF93CF9300D00F92CDB7DEB789837E
:101B60006A834B838A816B810E942B0D89810E943D
:101B7000210A0F900F900F90CF91DF9108950F934E
:101B80001F93DF93CF93CDB7DEB764970FB6F8946A
:101B9000DEBF0FBECDBF698B7A8B8B8B9C8B1A827D
:101BA00089899A89AB89BC89BB230CF066C0898975
:101BB0009A89AB89BC89B095A095909581959F4FE6
:101BC000AF4FBF4F898B9A8BAB8BBC8B42C08A8146
:101BD000082F10E089899A89AB89BC892AE030E016
:101BE00040E050E0BC01CD010E94A00FDC01CB0120
:101BF000282F205DCE010396FC01E00FF11F20830A
:101C000089899A89AB89BC892AE030E040E050E0BC
:101C1000BC01CD010E94A00FDC01CB019C01AD01F4
:101C200089899A89AB89BC89821B930BA40BB50B5C
:101C30002AE030E040E050E0BC01CD010E94A00F5E
:101C4000DA01C901898B9A8BAB8BBC8B8A818F5F40
:101C50008A8389899A89AB89BC890097A105B105D6
:101C600009F0B5CF8A81282F30E0CE010396FC0120
:101C7000E20FF31F8DE280836CC089899A89AB895A
:101C8000BC890097A105B10559F48A81282F30E05D
:101C9000CE010396FC01E20FF31F80E3808359C05D
:101CA00089899A89AB89BC89181619061A061B06F8
:101CB0000CF04FC042C08A81082F10E089899A89B0
:101CC000AB89BC892AE030E040E050E0BC01CD01A6
:101CD0000E94A00FDC01CB01282F205DCE010396CE
:101CE000FC01E00FF11F208389899A89AB89BC89A7
:101CF0002AE030E040E050E0BC01CD010E94A00F9E
:101D0000DC01CB019C01AD0189899A89AB89BC8931
:101D1000821B930BA40BB50B2AE030E040E050E0AF
:101D2000BC01CD010E94A00FDA01C901898B9A8BF9
:101D3000AB8BBC8B8A818F5F8A8389899A89AB89B7
:101D4000BC890097A105B10509F0B5CF8A81815002
:101D50008A838A81898310C08981282F332727FDB0
:101D60003095CE010396FC01E20FF31F80810E94A3
:101D7000210A898181508983898188236CF764963F
:101D80000FB6F894DEBF0FBECDBFCF91DF911F918C
:101D90000F910895DF93CF93CDB7DEB761970FB65C
:101DA000F894DEBF0FBECDBF0E94310B81E00E94D0
:101DB000110980E690E00E944D0D198ABCC0188A76
:101DC000ACC01F869CC081E060E00E942B0D898919
:101DD000882F90E0A0E0B0E0BC01CD010E94BF0DD3
:101DE00081E067E00E942B0D8889882F90E0A0E0B9
:101DF000B0E0BC01CD010E94BF0D81E06DE00E940A
:101E00002B0D8F85882F90E0A0E0B0E0BC01CD01C4
:101E10000E94BF0D80E090E0AAE7B4E48B879C8726
:101E2000AD87BE876B857C858D859E8520E030E003
:101E30004AEF54E40E941702DC01CB018F8398879C
:101E4000A987BA876F81788589859A8520E030E0F7
:101E500040E85FE30E94710388232CF481E090E066
:101E60009E838D833FC06F81788589859A8520E028
:101E70003FEF4FE757E40E94110318164CF56B85AE
:101E80007C858D859E8520E030E040E251E40E9413
:101E90001702DC01CB01BC01CD010E944100DC0135
:101EA000CB019E838D830FC088EC90E09C838B8355
:101EB0008B819C810197F1F79C838B838D819E811F
:101EC00001979E838D838D819E81009769F714C051
:101ED0006F81788589859A850E944100DC01CB015C
:101EE0009E838D838D819E819A83898389819A8146
:101EF0000197F1F79A8389838F858F5F8F878F850D
:101F00008C3308F460CF81E00E94110980E690E0F4
:101F10000E944D0D88898F5F888B88898C3308F4E7
:101F200050CF81E00E94110980E690E00E944D0DA3
:101F300089898F5F898B89898C3308F440CF36CFAC
:101F400097FB092E05260ED057FD04D014D00AD0D9
:101F5000001C38F450954095309521953F4F4F4FD8
:101F60005F4F0895F6F790958095709561957F4F36
:101F70008F4F9F4F0895A1E21A2EAA1BBB1BFD0194
:101F80000DC0AA1FBB1FEE1FFF1FA217B307E40758
:101F9000F50720F0A21BB30BE40BF50B661F771FB0
:101FA000881F991F1A9469F7609570958095909590
:101FB0009B01AC01BD01CF0108952F923F924F923A
:101FC0005F926F927F928F929F92AF92BF92CF92C9
:101FD000DF92EF92FF920F931F93CF93DF93CDB7D2
:101FE000DEB7CA1BDB0B0FB6F894DEBF0FBECDBF4A
:101FF00009942A88398848885F846E847D848C841B
:102000009B84AA84B984C884DF80EE80FD800C8123
:102010001B81AA81B981CE0FD11D0FB6F894DEBF06
:0C2020000FBECDBFED010895F894FFCF76
:10202C00486F757273203A4D696E73203A5365632D
:0A203C00000000000000000000009A
:00000001FF
