:100000000C942A000C941F050C9452050C94850541
:100010000C943C000C943C000C943C000C943C0070
:100020000C943C000C943C000C943C000C943C0060
:100030000C943C000C943C000C943C000C943C0050
:100040000C943C000C943C000C943C000C943C0040
:100050000C943C0011241FBECFE5D8E0DEBFCDBF1D
:1000600010E0A0E6B0E001C01D92A836B107E1F7AC
:100070000E94B8050C9429060C940000DF93CF93DE
:10008000CDB7DEB727970FB6F894DEBF0FBECDBF52
:1000900089836A834B838B81882309F074C08981AB
:1000A000282F30E03F832E838E819F818130910500
:1000B00059F12E813F81223031052CF48E819F81B0
:1000C000009769F0D2C02E813F812230310589F13D
:1000D0008E819F818330910509F440C0C6C0AAE398
:1000E000B0E0EAE3F0E08081482F8A81282F30E0F9
:1000F00081E090E0022E02C0880F991F0A94E2F777
:10010000809584238C93B1C0A7E3B0E0E7E3F0E0EF
:100110008081482F8A81282F30E081E090E0022EF4
:1001200002C0880F991F0A94E2F7809584238C936C
:100130009CC0A4E3B0E0E4E3F0E08081482F8A8132
:10014000282F30E081E090E0022E02C0880F991F36
:100150000A94E2F7809584238C9387C0A1E3B0E0F2
:10016000E1E3F0E08081482F8A81282F30E081E0B0
:1001700090E0022E02C0880F991F0A94E2F7809542
:1001800084238C9372C08B81813009F06EC0898189
:10019000282F30E03D832C838C819D818130910517
:1001A00049F12C813D81223031052CF48C819D81D7
:1001B000009761F05AC02C813D812230310571F1E8
:1001C0008C819D8183309105E9F14FC0AAE3B0E0B5
:1001D000EAE3F0E08081482F8A81282F30E081E037
:1001E00090E0022E02C0880F991F0A94E2F7842B38
:1001F0008C933BC0A7E3B0E0E7E3F0E08081482FB9
:100200008A81282F30E081E090E0022E02C0880F22
:10021000991F0A94E2F7842B8C9327C0A4E3B0E0E3
:10022000E4E3F0E08081482F8A81282F30E081E0EC
:1002300090E0022E02C0880F991F0A94E2F7842BE7
:100240008C9313C0A1E3B0E0E1E3F0E08081482F9C
:100250008A81282F30E081E090E0022E02C0880FD2
:10026000991F0A94E2F7842B8C9327960FB6F89483
:10027000DEBF0FBECDBFCF91DF910895DF93CF9347
:10028000CDB7DEB727970FB6F894DEBF0FBECDBF50
:1002900089836A834B838B81882309F074C08981A9
:1002A000282F30E03F832E838E819F8181309105FE
:1002B00059F12E813F81223031052CF48E819F81AE
:1002C000009769F0D2C02E813F812230310589F13B
:1002D0008E819F818330910509F440C0C6C0ABE395
:1002E000B0E0EBE3F0E08081482F8A81282F30E0F6
:1002F00081E090E0022E02C0880F991F0A94E2F775
:10030000809584238C93B1C0A8E3B0E0E8E3F0E0EB
:100310008081482F8A81282F30E081E090E0022EF2
:1003200002C0880F991F0A94E2F7809584238C936A
:100330009CC0A5E3B0E0E5E3F0E08081482F8A812E
:10034000282F30E081E090E0022E02C0880F991F34
:100350000A94E2F7809584238C9387C0A2E3B0E0EF
:10036000E2E3F0E08081482F8A81282F30E081E0AD
:1003700090E0022E02C0880F991F0A94E2F7809540
:1003800084238C9372C08B81813009F06EC0898187
:10039000282F30E03D832C838C819D818130910515
:1003A00049F12C813D81223031052CF48C819D81D5
:1003B000009761F05AC02C813D812230310571F1E6
:1003C0008C819D8183309105E9F14FC0ABE3B0E0B2
:1003D000EBE3F0E08081482F8A81282F30E081E034
:1003E00090E0022E02C0880F991F0A94E2F7842B36
:1003F0008C933BC0A8E3B0E0E8E3F0E08081482FB5
:100400008A81282F30E081E090E0022E02C0880F20
:10041000991F0A94E2F7842B8C9327C0A5E3B0E0E0
:10042000E5E3F0E08081482F8A81282F30E081E0E9
:1004300090E0022E02C0880F991F0A94E2F7842BE5
:100440008C9313C0A2E3B0E0E2E3F0E08081482F98
:100450008A81282F30E081E090E0022E02C0880FD0
:10046000991F0A94E2F7842B8C9327960FB6F89481
:10047000DEBF0FBECDBFCF91DF910895DF93CF9345
:1004800000D000D00F92CDB7DEB78A836B8319827C
:100490008A81282F30E03D832C834C815D8141305F
:1004A000510541F18C819D818230910534F42C817C
:1004B0003D812115310561F052C04C815D81423092
:1004C000510551F18C819D8183309105B9F147C06F
:1004D000E9E3F0E08081282F30E08B81882F90E0E5
:1004E000A90102C0559547958A95E2F7CA01817026
:1004F000898335C0E6E3F0E08081282F30E08B81EE
:10050000882F90E0A90102C0559547958A95E2F79A
:10051000CA018170898323C0E3E3F0E08081282F42
:1005200030E08B81882F90E0A90102C05595479556
:100530008A95E2F7CA018170898311C0E0E3F0E097
:100540008081282F30E08B81882F90E0A90102C0A4
:10055000559547958A95E2F7CA018170898389810B
:100560000F900F900F900F900F90CF91DF91089503
:10057000DF93CF9300D000D000D0CDB7DEB7898312
:100580006A838A81882379F58981282F30E03E8328
:100590002D838D819E8181309105C9F02D813E8111
:1005A000223031052CF48D819E81009761F050C07E
:1005B0002D813E812230310571F08D819E81833005
:1005C000910569F045C0EAE3F0E0108241C0E7E33D
:1005D000F0E010823DC0E4E3F0E0108239C0E1E3D6
:1005E000F0E0108235C08A81813091F58981282F11
:1005F00030E03C832B838B819C8181309105D1F04D
:100600002B813C81223031052CF48B819C81009719
:1006100061F01EC02B813C812230310581F08B813D
:100620009C818330910581F013C0EAE3F0E08FEF05
:1006300080830EC0E7E3F0E08FEF808309C0E4E33E
:10064000F0E08FEF808304C0E1E3F0E08FEF808380
:1006500026960FB6F894DEBF0FBECDBFCF91DF91C7
:100660000895DF93CF9300D000D0CDB7DEB7898354
:100670006A838981282F30E03C832B838B819C8186
:1006800081309105D1F02B813C81223031052CF451
:100690008B819C81009761F01EC02B813C812230B0
:1006A000310581F08B819C818330910581F013C0ED
:1006B000EBE3F0E08A8180830EC0E8E3F0E08A811A
:1006C000808309C0E5E3F0E08A81808304C0E2E32F
:1006D000F0E08A8180830F900F900F900F90CF9160
:1006E000DF910895DF93CF9300D000D0CDB7DEB770
:1006F0008A8319828A81282F30E03C832B838B8167
:100700009C8181309105D1F02B813C8122303105D3
:100710002CF48B819C81009761F01EC02B813C8161
:100720002230310581F08B819C818330910581F0ED
:1007300013C0E9E3F0E0808189830EC0E6E3F0E0D6
:100740008081898309C0E3E3F0E08081898304C06C
:10075000E0E3F0E08081898389810F900F900F9012
:100760000F90CF91DF910895DF93CF93CDB7DEB790
:100770002C970FB6F894DEBF0FBECDBF69837A8386
:100780008B839C83AFE5B0E0EFE5F0E0808180688B
:100790008C938981282F30E03C872B878B859C8523
:1007A0008230910509F475C02B853C8523303105D5
:1007B00009F4D8C08B859C858130910509F0FEC075
:1007C000ABE5B0E0EBE5F0E0808180648C938A815A
:1007D000282F30E03A87298789859A8582309105CC
:1007E00029F129853A852330310534F489859A85A4
:1007F0008130910561F046C029853A852330310565
:1008000021F189859A858430910571F13BC0A5E578
:10081000B0E0E5E5F0E080818D7F8C93A5E5B0E068
:10082000E5E5F0E080818E7F8C932CC0A5E5B0E0FB
:10083000E5E5F0E080818D7F8C93A5E5B0E0E5E50E
:10084000F0E0808181608C931DC0A5E5B0E0E5E516
:10085000F0E0808182608C93A5E5B0E0E5E5F0E012
:1008600080818E7F8C930EC0A5E5B0E0E5E5F0E0D9
:10087000808182608C93A5E5B0E0E5E5F0E08081C1
:1008800081608C938B819C81909365008093640040
:1008900095C0ABE5B0E0EBE5F0E0808180688C933B
:1008A0008A81282F30E038872F838F819885823086
:1008B000910529F12F8138852330310534F48F815A
:1008C00098858130910561F046C02F8138852330AD
:1008D000310521F18F8198858430910571F13BC0FC
:1008E000A5E5B0E0E5E5F0E08081877F8C93A5E5A4
:1008F000B0E0E5E5F0E080818B7F8C932CC0A5E52E
:10090000B0E0E5E5F0E08081877F8C93A5E5B0E07D
:10091000E5E5F0E0808184608C931DC0A5E5B0E042
:10092000E5E5F0E0808188608C93A5E5B0E0E5E541
:10093000F0E080818B7F8C930EC0A5E5B0E0E5E50B
:10094000F0E0808184608C93A5E5B0E0E5E5F0E01F
:10095000808188608C938B819C81909367008093C9
:1009600066002CC0ABE5B0E0EBE5F0E08081806292
:100970008C938A81282F30E03E832D838D819E8148
:100980008330910531F02D813E812430310549F0CD
:100990000FC0A4E5B0E0E4E5F0E080818F7B8C93AC
:1009A00007C0A4E5B0E0E4E5F0E0808180648C93CA
:1009B0008B819C8190936300809362002C960FB68C
:1009C000F894DEBF0FBECDBFCF91DF910895DF93C6
:1009D000CF9300D00F92CDB7DEB789838981282FBE
:1009E00030E03B832A838A819B818230910591F09C
:1009F0002A813B8123303105A9F08A819B81813096
:100A00009105B9F4ABE5B0E0EBE5F0E080818F7BD8
:100A10008C930FC0ABE5B0E0EBE5F0E080818F7721
:100A20008C9307C0ABE5B0E0EBE5F0E080818F7D13
:100A30008C930F900F900F90CF91DF9108951F929C
:100A40000F920FB60F9211242F933F934F935F9302
:100A50006F937F938F939F93AF93BF93EF93FF9386
:100A6000DF93CF93CDB7DEB780916400909165009E
:100A7000009729F0E0916400F09165000995CF910D
:100A8000DF91FF91EF91BF91AF919F918F917F91F6
:100A90006F915F914F913F912F910F900FBE0F90EB
:100AA0001F9018951F920F920FB60F9211242F933B
:100AB0003F934F935F936F937F938F939F93AF93E6
:100AC000BF93EF93FF93DF93CF93CDB7DEB78091C2
:100AD000660090916700009729F0E0916600F09120
:100AE00067000995CF91DF91FF91EF91BF91AF9191
:100AF0009F918F917F916F915F914F913F912F9136
:100B00000F900FBE0F901F9018951F920F920FB667
:100B10000F9211242F933F934F935F936F937F9383
:100B20008F939F93AF93BF93EF93FF93DF93CF93F5
:100B3000CDB7DEB78091620090916300009729F0F5
:100B4000E0916200F09163000995CF91DF91FF91F0
:100B5000EF91BF91AF919F918F917F916F915F9135
:100B60004F913F912F910F900FBE0F901F901895AE
:100B7000DF93CF93CDB7DEB728970FB6F894DEBFDB
:100B80000FBECDBF83E062E040E00E943E0083E004
:100B900063E040E00E943E0082E061E041E00E94AC
:100BA0003E0082E062E041E00E943E0083E062E0BD
:100BB00041E00E943E0183E063E041E00E943E018B
:100BC00081E0898383E08A8381E096E09C838B8344
:100BD00082E08D8383E08E8385E196E098878F8322
:100BE00089819A81AB81BC81BC01CD010E94B40393
:100BF0008D819E81AF81B885BC01CD010E94B40377
:100C0000FFCFDF93CF93CDB7DEB79091600081E047
:100C10008927809360009091600082E061E0492F15
:100C20000E943E01CF91DF910895DF93CF93CDB71E
:100C3000DEB79091610081E08927809361009091F7
:100C4000610082E062E0492F0E943E01CF91DF9176
:060C50000895F894FFCFA7
:00000001FF
